:020000040800F2
:1000000000A00020E10100083102000831020008D0
:10001000310200083102000831020008000000002F
:100020000000000000000000000000003102000895
:10003000310200080000000031020008310200080F
:1000400031020008310200083102000831020008C4
:1000500031020008310200083102000831020008B4
:1000600031020008310200083102000831020008A4
:100070003102000831020008310200083102000894
:100080003102000831020008310200083102000884
:100090003102000831020008310200083102000874
:1000A0003102000831020008310200083102000864
:1000B0003102000831020008310200083102000854
:1000C0003102000831020008310200083102000844
:1000D0003102000831020008310200083102000834
:1000E0003102000831020008310200083102000824
:1000F0003102000831020008310200083102000814
:1001000000000000000000000000000031020008B4
:1001100031020008310200083102000831020008F3
:1001200031020008310200083102000831020008E3
:100130003102000831020008000000000000000049
:1001400031020008310200083102000800000000FE
:10015000000000000000000000000000000000009F
:100160000000000000000000310200083102000819
:100170003102000800000000000000000000000044
:0801800000000000310200083C
:1001880010B5054C237833B9044B13B10448AFF3C9
:1001980000800123237010BD000000200000000033
:1001A8007C02000808B5034B1BB103490348AFF3B1
:1001B800008008BD00000000040000207C02000848
:1001C800FEE70000034AD2F8883043F47003C2F80F
:1001D8008830704700ED00E0DFF834D00D480E4954
:1001E8000E4A002302E0D458C4500433C4188C4289
:1001F800F9D30B4A0B4C002301E013600432A242EE
:10020800FBD3FFF7DFFF00F011F8FFF7D9FFFEE798
:1002180000A0002000000020000000209C02000830
:10022800000000201C000020FEE7000070B50D4D06
:100238000D4C641BA4100026A64209D10B4D0C4C92
:1002480000F018F8641BA4100026A64205D170BD62
:1002580055F8043B98470136EEE755F8043B9847B4
:100268000136F2E79402000894020008940200089C
:1002780098020008F8B500BFF8BC08BC9E46704755
:0C028800F8B500BFF8BC08BC9E467047EB
:04029400AD010008B0
:0402980089010008D0
:04000005080001E10D
:00000001FF
